{
  "contractName": "CustomWhitelist",
  "abi": [
    {
      "constant": false,
      "inputs": [
        {
          "name": "_address",
          "type": "address"
        }
      ],
      "name": "removeAdmin",
      "outputs": [],
      "payable": false,
      "stateMutability": "nonpayable",
      "type": "function"
    },
    {
      "constant": true,
      "inputs": [
        {
          "name": "_address",
          "type": "address"
        }
      ],
      "name": "isAdmin",
      "outputs": [
        {
          "name": "",
          "type": "bool"
        }
      ],
      "payable": false,
      "stateMutability": "view",
      "type": "function"
    },
    {
      "constant": false,
      "inputs": [],
      "name": "unpause",
      "outputs": [],
      "payable": false,
      "stateMutability": "nonpayable",
      "type": "function"
    },
    {
      "constant": true,
      "inputs": [
        {
          "name": "",
          "type": "address"
        }
      ],
      "name": "admins",
      "outputs": [
        {
          "name": "",
          "type": "bool"
        }
      ],
      "payable": false,
      "stateMutability": "view",
      "type": "function"
    },
    {
      "constant": true,
      "inputs": [],
      "name": "paused",
      "outputs": [
        {
          "name": "",
          "type": "bool"
        }
      ],
      "payable": false,
      "stateMutability": "view",
      "type": "function"
    },
    {
      "constant": false,
      "inputs": [
        {
          "name": "_address",
          "type": "address"
        }
      ],
      "name": "addAdmin",
      "outputs": [],
      "payable": false,
      "stateMutability": "nonpayable",
      "type": "function"
    },
    {
      "constant": false,
      "inputs": [],
      "name": "renounceOwnership",
      "outputs": [],
      "payable": false,
      "stateMutability": "nonpayable",
      "type": "function"
    },
    {
      "constant": false,
      "inputs": [],
      "name": "pause",
      "outputs": [],
      "payable": false,
      "stateMutability": "nonpayable",
      "type": "function"
    },
    {
      "constant": true,
      "inputs": [],
      "name": "owner",
      "outputs": [
        {
          "name": "",
          "type": "address"
        }
      ],
      "payable": false,
      "stateMutability": "view",
      "type": "function"
    },
    {
      "constant": true,
      "inputs": [],
      "name": "isOwner",
      "outputs": [
        {
          "name": "",
          "type": "bool"
        }
      ],
      "payable": false,
      "stateMutability": "view",
      "type": "function"
    },
    {
      "constant": true,
      "inputs": [
        {
          "name": "",
          "type": "address"
        }
      ],
      "name": "whitelist",
      "outputs": [
        {
          "name": "",
          "type": "bool"
        }
      ],
      "payable": false,
      "stateMutability": "view",
      "type": "function"
    },
    {
      "constant": false,
      "inputs": [
        {
          "name": "_accounts",
          "type": "address[]"
        }
      ],
      "name": "addManyAdmins",
      "outputs": [],
      "payable": false,
      "stateMutability": "nonpayable",
      "type": "function"
    },
    {
      "constant": false,
      "inputs": [
        {
          "name": "_accounts",
          "type": "address[]"
        }
      ],
      "name": "removeManyAdmins",
      "outputs": [],
      "payable": false,
      "stateMutability": "nonpayable",
      "type": "function"
    },
    {
      "constant": false,
      "inputs": [
        {
          "name": "newOwner",
          "type": "address"
        }
      ],
      "name": "transferOwnership",
      "outputs": [],
      "payable": false,
      "stateMutability": "nonpayable",
      "type": "function"
    },
    {
      "anonymous": false,
      "inputs": [
        {
          "indexed": true,
          "name": "_account",
          "type": "address"
        }
      ],
      "name": "WhitelistAdded",
      "type": "event"
    },
    {
      "anonymous": false,
      "inputs": [
        {
          "indexed": true,
          "name": "_account",
          "type": "address"
        }
      ],
      "name": "WhitelistRemoved",
      "type": "event"
    },
    {
      "anonymous": false,
      "inputs": [],
      "name": "Paused",
      "type": "event"
    },
    {
      "anonymous": false,
      "inputs": [],
      "name": "Unpaused",
      "type": "event"
    },
    {
      "anonymous": false,
      "inputs": [
        {
          "indexed": true,
          "name": "_address",
          "type": "address"
        }
      ],
      "name": "AdminAdded",
      "type": "event"
    },
    {
      "anonymous": false,
      "inputs": [
        {
          "indexed": true,
          "name": "_address",
          "type": "address"
        }
      ],
      "name": "AdminRemoved",
      "type": "event"
    },
    {
      "anonymous": false,
      "inputs": [
        {
          "indexed": true,
          "name": "previousOwner",
          "type": "address"
        },
        {
          "indexed": true,
          "name": "newOwner",
          "type": "address"
        }
      ],
      "name": "OwnershipTransferred",
      "type": "event"
    },
    {
      "constant": false,
      "inputs": [
        {
          "name": "_account",
          "type": "address"
        }
      ],
      "name": "addWhitelist",
      "outputs": [],
      "payable": false,
      "stateMutability": "nonpayable",
      "type": "function"
    },
    {
      "constant": false,
      "inputs": [
        {
          "name": "_accounts",
          "type": "address[]"
        }
      ],
      "name": "addManyWhitelist",
      "outputs": [],
      "payable": false,
      "stateMutability": "nonpayable",
      "type": "function"
    },
    {
      "constant": false,
      "inputs": [
        {
          "name": "_account",
          "type": "address"
        }
      ],
      "name": "removeWhitelist",
      "outputs": [],
      "payable": false,
      "stateMutability": "nonpayable",
      "type": "function"
    },
    {
      "constant": false,
      "inputs": [
        {
          "name": "_accounts",
          "type": "address[]"
        }
      ],
      "name": "removeManyWhitelist",
      "outputs": [],
      "payable": false,
      "stateMutability": "nonpayable",
      "type": "function"
    }
  ],
  "bytecode": "0x60806040526000600260006101000a81548160ff021916908315150217905550336000806101000a81548173ffffffffffffffffffffffffffffffffffffffff021916908373ffffffffffffffffffffffffffffffffffffffff1602179055506000809054906101000a900473ffffffffffffffffffffffffffffffffffffffff1673ffffffffffffffffffffffffffffffffffffffff16600073ffffffffffffffffffffffffffffffffffffffff167f8be0079c531659141344cd1fd0a4f28419497f9722a3daafe3b4186f6b6457e060405160405180910390a36122bb806100ea6000396000f3006080604052600436106100fc576000357c0100000000000000000000000000000000000000000000000000000000900463ffffffff1680630aaef916146101015780631785f53c1461013c57806324d7806c1461017f5780633f4ba83a146101da578063429b62e5146101f15780635c975abb1461024c578063704802751461027b578063715018a6146102be57806378c8cda7146102d55780638456cb59146103185780638da5cb5b1461032f5780638f32d59b146103865780639b19251a146103b55780639d8168f014610410578063a8e6e77b1461044b578063f1bca30f14610486578063f2fde38b146104c1578063f80f5dd514610504575b600080fd5b34801561010d57600080fd5b5061013a600480360381019080803590602001908201803590602001919091929391929390505050610547565b005b34801561014857600080fd5b5061017d600480360381019080803573ffffffffffffffffffffffffffffffffffffffff169060200190929190505050610872565b005b34801561018b57600080fd5b506101c0600480360381019080803573ffffffffffffffffffffffffffffffffffffffff169060200190929190505050610c10565b604051808215151515815260200191505060405180910390f35b3480156101e657600080fd5b506101ef610cab565b005b3480156101fd57600080fd5b50610232600480360381019080803573ffffffffffffffffffffffffffffffffffffffff169060200190929190505050610e1b565b604051808215151515815260200191505060405180910390f35b34801561025857600080fd5b50610261610e3b565b604051808215151515815260200191505060405180910390f35b34801561028757600080fd5b506102bc600480360381019080803573ffffffffffffffffffffffffffffffffffffffff169060200190929190505050610e4e565b005b3480156102ca57600080fd5b506102d36111ec565b005b3480156102e157600080fd5b50610316600480360381019080803573ffffffffffffffffffffffffffffffffffffffff1690602001909291905050506112be565b005b34801561032457600080fd5b5061032d611513565b005b34801561033b57600080fd5b50610344611684565b604051808273ffffffffffffffffffffffffffffffffffffffff1673ffffffffffffffffffffffffffffffffffffffff16815260200191505060405180910390f35b34801561039257600080fd5b5061039b6116ad565b604051808215151515815260200191505060405180910390f35b3480156103c157600080fd5b506103f6600480360381019080803573ffffffffffffffffffffffffffffffffffffffff169060200190929190505050611704565b604051808215151515815260200191505060405180910390f35b34801561041c57600080fd5b50610449600480360381019080803590602001908201803590602001919091929391929390505050611724565b005b34801561045757600080fd5b50610484600480360381019080803590602001908201803590602001919091929391929390505050611a4e565b005b34801561049257600080fd5b506104bf600480360381019080803590602001908201803590602001919091929391929390505050611cb7565b005b3480156104cd57600080fd5b50610502600480360381019080803573ffffffffffffffffffffffffffffffffffffffff169060200190929190505050611f20565b005b34801561051057600080fd5b50610545600480360381019080803573ffffffffffffffffffffffffffffffffffffffff169060200190929190505050611f3f565b005b6000600260009054906101000a900460ff161515156105f4576040517f08c379a00000000000000000000000000000000000000000000000000000000081526004018080602001828103825260248152602001807f536f727279206275742074686520636f6e74726163742069736e27742070617581526020017f7365642e0000000000000000000000000000000000000000000000000000000081525060400191505060405180910390fd5b6105fd33610c10565b1515610671576040517f08c379a00000000000000000000000000000000000000000000000000000000081526004018080602001828103825260118152602001807f4163636573732069732064656e6965642e00000000000000000000000000000081525060200191505060405180910390fd5b600090505b828290508160ff16101561086d57600073ffffffffffffffffffffffffffffffffffffffff1683838360ff1681811015156106ad57fe5b9050602002013573ffffffffffffffffffffffffffffffffffffffff1673ffffffffffffffffffffffffffffffffffffffff161415801561076557506003600084848460ff1681811015156106fe57fe5b9050602002013573ffffffffffffffffffffffffffffffffffffffff1673ffffffffffffffffffffffffffffffffffffffff1673ffffffffffffffffffffffffffffffffffffffff16815260200190815260200160002060009054906101000a900460ff16155b156108605760016003600085858560ff16818110151561078157fe5b9050602002013573ffffffffffffffffffffffffffffffffffffffff1673ffffffffffffffffffffffffffffffffffffffff1673ffffffffffffffffffffffffffffffffffffffff16815260200190815260200160002060006101000a81548160ff02191690831515021790555082828260ff16818110151561080057fe5b9050602002013573ffffffffffffffffffffffffffffffffffffffff1673ffffffffffffffffffffffffffffffffffffffff167f4790a4adb426ca2345bb5108f6e454eae852a7bf687544cd66a7270dff3a41d660405160405180910390a25b8080600101915050610676565b505050565b61087b33610c10565b15156108ef576040517f08c379a00000000000000000000000000000000000000000000000000000000081526004018080602001828103825260118152602001807f4163636573732069732064656e6965642e00000000000000000000000000000081525060200191505060405180910390fd5b600073ffffffffffffffffffffffffffffffffffffffff168173ffffffffffffffffffffffffffffffffffffffff1614151515610994576040517f08c379a00000000000000000000000000000000000000000000000000000000081526004018080602001828103825260108152602001807f496e76616c696420616464726573732e0000000000000000000000000000000081525060200191505060405180910390fd5b600160008273ffffffffffffffffffffffffffffffffffffffff1673ffffffffffffffffffffffffffffffffffffffff16815260200190815260200160002060009054906101000a900460ff161515610a7b576040517f08c379a00000000000000000000000000000000000000000000000000000000081526004018080602001828103825260248152602001807f5468697320616464726573732069736e277420616e2061646d696e697374726181526020017f746f722e0000000000000000000000000000000000000000000000000000000081525060400191505060405180910390fd5b610a83611684565b73ffffffffffffffffffffffffffffffffffffffff168173ffffffffffffffffffffffffffffffffffffffff1614151515610b72576040517f08c379a00000000000000000000000000000000000000000000000000000000081526004018080602001828103825260478152602001807f546865206f776e65722063616e6e6f74206265206164646564206f722072656d81526020017f6f76656420746f206f722066726f6d207468652061646d696e6973747261746f81526020017f72206c6973742e0000000000000000000000000000000000000000000000000081525060600191505060405180910390fd5b6000600160008373ffffffffffffffffffffffffffffffffffffffff1673ffffffffffffffffffffffffffffffffffffffff16815260200190815260200160002060006101000a81548160ff0219169083151502179055508073ffffffffffffffffffffffffffffffffffffffff167fa3b62bc36326052d97ea62d63c3d60308ed4c3ea8ac079dd8499f1e9c4f80c0f60405160405180910390a250565b6000610c1a611684565b73ffffffffffffffffffffffffffffffffffffffff168273ffffffffffffffffffffffffffffffffffffffff161415610c565760019050610ca6565b600160008373ffffffffffffffffffffffffffffffffffffffff1673ffffffffffffffffffffffffffffffffffffffff16815260200190815260200160002060009054906101000a900460ff1690505b919050565b610cb433610c10565b1515610d28576040517f08c379a00000000000000000000000000000000000000000000000000000000081526004018080602001828103825260118152602001807f4163636573732069732064656e6965642e00000000000000000000000000000081525060200191505060405180910390fd5b600260009054906101000a900460ff161515610dd2576040517f08c379a00000000000000000000000000000000000000000000000000000000081526004018080602001828103825260218152602001807f536f727279206275742074686520636f6e74726163742069732070617573656481526020017f2e0000000000000000000000000000000000000000000000000000000000000081525060400191505060405180910390fd5b6000600260006101000a81548160ff0219169083151502179055507fa45f47fdea8a1efdd9029a5691c7f759c32b7c698632b563573e155625d1693360405160405180910390a1565b60016020528060005260406000206000915054906101000a900460ff1681565b600260009054906101000a900460ff1681565b610e5733610c10565b1515610ecb576040517f08c379a00000000000000000000000000000000000000000000000000000000081526004018080602001828103825260118152602001807f4163636573732069732064656e6965642e00000000000000000000000000000081525060200191505060405180910390fd5b600073ffffffffffffffffffffffffffffffffffffffff168173ffffffffffffffffffffffffffffffffffffffff1614151515610f70576040517f08c379a00000000000000000000000000000000000000000000000000000000081526004018080602001828103825260108152602001807f496e76616c696420616464726573732e0000000000000000000000000000000081525060200191505060405180910390fd5b600160008273ffffffffffffffffffffffffffffffffffffffff1673ffffffffffffffffffffffffffffffffffffffff16815260200190815260200160002060009054906101000a900460ff16151515611058576040517f08c379a00000000000000000000000000000000000000000000000000000000081526004018080602001828103825260298152602001807f54686973206164647265737320697320616c726561647920616e2061646d696e81526020017f6973747261746f722e000000000000000000000000000000000000000000000081525060400191505060405180910390fd5b611060611684565b73ffffffffffffffffffffffffffffffffffffffff168173ffffffffffffffffffffffffffffffffffffffff161415151561114f576040517f08c379a00000000000000000000000000000000000000000000000000000000081526004018080602001828103825260478152602001807f546865206f776e65722063616e6e6f74206265206164646564206f722072656d81526020017f6f76656420746f206f722066726f6d207468652061646d696e6973747261746f81526020017f72206c6973742e0000000000000000000000000000000000000000000000000081525060600191505060405180910390fd5b60018060008373ffffffffffffffffffffffffffffffffffffffff1673ffffffffffffffffffffffffffffffffffffffff16815260200190815260200160002060006101000a81548160ff0219169083151502179055508073ffffffffffffffffffffffffffffffffffffffff167f44d6d25963f097ad14f29f06854a01f575648a1ef82f30e562ccd3889717e33960405160405180910390a250565b6111f46116ad565b15156111ff57600080fd5b600073ffffffffffffffffffffffffffffffffffffffff166000809054906101000a900473ffffffffffffffffffffffffffffffffffffffff1673ffffffffffffffffffffffffffffffffffffffff167f8be0079c531659141344cd1fd0a4f28419497f9722a3daafe3b4186f6b6457e060405160405180910390a360008060006101000a81548173ffffffffffffffffffffffffffffffffffffffff021916908373ffffffffffffffffffffffffffffffffffffffff160217905550565b600260009054906101000a900460ff16151515611369576040517f08c379a00000000000000000000000000000000000000000000000000000000081526004018080602001828103825260248152602001807f536f727279206275742074686520636f6e74726163742069736e27742070617581526020017f7365642e0000000000000000000000000000000000000000000000000000000081525060400191505060405180910390fd5b61137233610c10565b15156113e6576040517f08c379a00000000000000000000000000000000000000000000000000000000081526004018080602001828103825260118152602001807f4163636573732069732064656e6965642e00000000000000000000000000000081525060200191505060405180910390fd5b600073ffffffffffffffffffffffffffffffffffffffff168173ffffffffffffffffffffffffffffffffffffffff161415151561142257600080fd5b600360008273ffffffffffffffffffffffffffffffffffffffff1673ffffffffffffffffffffffffffffffffffffffff16815260200190815260200160002060009054906101000a900460ff1615611510576000600360008373ffffffffffffffffffffffffffffffffffffffff1673ffffffffffffffffffffffffffffffffffffffff16815260200190815260200160002060006101000a81548160ff0219169083151502179055508073ffffffffffffffffffffffffffffffffffffffff167fde8cf212af7ce38b2840785a2768d97ff2dbf3c21b516961cec0061e134c2a1e60405160405180910390a25b50565b61151c33610c10565b1515611590576040517f08c379a00000000000000000000000000000000000000000000000000000000081526004018080602001828103825260118152602001807f4163636573732069732064656e6965642e00000000000000000000000000000081525060200191505060405180910390fd5b600260009054906101000a900460ff1615151561163b576040517f08c379a00000000000000000000000000000000000000000000000000000000081526004018080602001828103825260248152602001807f536f727279206275742074686520636f6e74726163742069736e27742070617581526020017f7365642e0000000000000000000000000000000000000000000000000000000081525060400191505060405180910390fd5b6001600260006101000a81548160ff0219169083151502179055507f9e87fac88ff661f02d44f95383c817fece4bce600a3dab7a54406878b965e75260405160405180910390a1565b60008060009054906101000a900473ffffffffffffffffffffffffffffffffffffffff16905090565b60008060009054906101000a900473ffffffffffffffffffffffffffffffffffffffff1673ffffffffffffffffffffffffffffffffffffffff163373ffffffffffffffffffffffffffffffffffffffff1614905090565b60036020528060005260406000206000915054906101000a900460ff1681565b6000600260009054906101000a900460ff161515156117d1576040517f08c379a00000000000000000000000000000000000000000000000000000000081526004018080602001828103825260248152602001807f536f727279206275742074686520636f6e74726163742069736e27742070617581526020017f7365642e0000000000000000000000000000000000000000000000000000000081525060400191505060405180910390fd5b6117da33610c10565b151561184e576040517f08c379a00000000000000000000000000000000000000000000000000000000081526004018080602001828103825260118152602001807f4163636573732069732064656e6965642e00000000000000000000000000000081525060200191505060405180910390fd5b600090505b828290508160ff161015611a4957600073ffffffffffffffffffffffffffffffffffffffff1683838360ff16818110151561188a57fe5b9050602002013573ffffffffffffffffffffffffffffffffffffffff1673ffffffffffffffffffffffffffffffffffffffff161415801561194157506003600084848460ff1681811015156118db57fe5b9050602002013573ffffffffffffffffffffffffffffffffffffffff1673ffffffffffffffffffffffffffffffffffffffff1673ffffffffffffffffffffffffffffffffffffffff16815260200190815260200160002060009054906101000a900460ff165b15611a3c5760006003600085858560ff16818110151561195d57fe5b9050602002013573ffffffffffffffffffffffffffffffffffffffff1673ffffffffffffffffffffffffffffffffffffffff1673ffffffffffffffffffffffffffffffffffffffff16815260200190815260200160002060006101000a81548160ff02191690831515021790555082828260ff1681811015156119dc57fe5b9050602002013573ffffffffffffffffffffffffffffffffffffffff1673ffffffffffffffffffffffffffffffffffffffff167fde8cf212af7ce38b2840785a2768d97ff2dbf3c21b516961cec0061e134c2a1e60405160405180910390a25b8080600101915050611853565b505050565b600080611a5a33610c10565b1515611ace576040517f08c379a00000000000000000000000000000000000000000000000000000000081526004018080602001828103825260118152602001807f4163636573732069732064656e6965642e00000000000000000000000000000081525060200191505060405180910390fd5b600091505b838390508260ff161015611cb15783838360ff168181101515611af257fe5b9050602002013573ffffffffffffffffffffffffffffffffffffffff169050600073ffffffffffffffffffffffffffffffffffffffff168173ffffffffffffffffffffffffffffffffffffffff1614158015611b985750600160008273ffffffffffffffffffffffffffffffffffffffff1673ffffffffffffffffffffffffffffffffffffffff16815260200190815260200160002060009054906101000a900460ff16155b8015611bd75750611ba7611684565b73ffffffffffffffffffffffffffffffffffffffff168173ffffffffffffffffffffffffffffffffffffffff1614155b15611ca45760018060008373ffffffffffffffffffffffffffffffffffffffff1673ffffffffffffffffffffffffffffffffffffffff16815260200190815260200160002060006101000a81548160ff02191690831515021790555083838360ff168181101515611c4457fe5b9050602002013573ffffffffffffffffffffffffffffffffffffffff1673ffffffffffffffffffffffffffffffffffffffff167f44d6d25963f097ad14f29f06854a01f575648a1ef82f30e562ccd3889717e33960405160405180910390a25b8180600101925050611ad3565b50505050565b600080611cc333610c10565b1515611d37576040517f08c379a00000000000000000000000000000000000000000000000000000000081526004018080602001828103825260118152602001807f4163636573732069732064656e6965642e00000000000000000000000000000081525060200191505060405180910390fd5b600091505b838390508260ff161015611f1a5783838360ff168181101515611d5b57fe5b9050602002013573ffffffffffffffffffffffffffffffffffffffff169050600073ffffffffffffffffffffffffffffffffffffffff168173ffffffffffffffffffffffffffffffffffffffff1614158015611e005750600160008273ffffffffffffffffffffffffffffffffffffffff1673ffffffffffffffffffffffffffffffffffffffff16815260200190815260200160002060009054906101000a900460ff165b8015611e3f5750611e0f611684565b73ffffffffffffffffffffffffffffffffffffffff168173ffffffffffffffffffffffffffffffffffffffff1614155b15611f0d576000600160008373ffffffffffffffffffffffffffffffffffffffff1673ffffffffffffffffffffffffffffffffffffffff16815260200190815260200160002060006101000a81548160ff02191690831515021790555083838360ff168181101515611ead57fe5b9050602002013573ffffffffffffffffffffffffffffffffffffffff1673ffffffffffffffffffffffffffffffffffffffff167fa3b62bc36326052d97ea62d63c3d60308ed4c3ea8ac079dd8499f1e9c4f80c0f60405160405180910390a25b8180600101925050611d3c565b50505050565b611f286116ad565b1515611f3357600080fd5b611f3c81612195565b50565b600260009054906101000a900460ff16151515611fea576040517f08c379a00000000000000000000000000000000000000000000000000000000081526004018080602001828103825260248152602001807f536f727279206275742074686520636f6e74726163742069736e27742070617581526020017f7365642e0000000000000000000000000000000000000000000000000000000081525060400191505060405180910390fd5b611ff333610c10565b1515612067576040517f08c379a00000000000000000000000000000000000000000000000000000000081526004018080602001828103825260118152602001807f4163636573732069732064656e6965642e00000000000000000000000000000081525060200191505060405180910390fd5b600073ffffffffffffffffffffffffffffffffffffffff168173ffffffffffffffffffffffffffffffffffffffff16141515156120a357600080fd5b600360008273ffffffffffffffffffffffffffffffffffffffff1673ffffffffffffffffffffffffffffffffffffffff16815260200190815260200160002060009054906101000a900460ff161515612192576001600360008373ffffffffffffffffffffffffffffffffffffffff1673ffffffffffffffffffffffffffffffffffffffff16815260200190815260200160002060006101000a81548160ff0219169083151502179055508073ffffffffffffffffffffffffffffffffffffffff167f4790a4adb426ca2345bb5108f6e454eae852a7bf687544cd66a7270dff3a41d660405160405180910390a25b50565b600073ffffffffffffffffffffffffffffffffffffffff168173ffffffffffffffffffffffffffffffffffffffff16141515156121d157600080fd5b8073ffffffffffffffffffffffffffffffffffffffff166000809054906101000a900473ffffffffffffffffffffffffffffffffffffffff1673ffffffffffffffffffffffffffffffffffffffff167f8be0079c531659141344cd1fd0a4f28419497f9722a3daafe3b4186f6b6457e060405160405180910390a3806000806101000a81548173ffffffffffffffffffffffffffffffffffffffff021916908373ffffffffffffffffffffffffffffffffffffffff160217905550505600a165627a7a72305820ae9de26cb6e0ff1e343e6fa5ce879a73500ab73e62c14e43dd02d74d2b7284de0029",
  "source": "/*\nCopyright 2018 Binod Nirvan\n\nLicensed under the Apache License, Version 2.0 (the \"License\");\nyou may not use this file except in compliance with the License.\nYou may obtain a copy of the License at\n\n    http://www.apache.org/licenses/LICENSE-2.0\n\nUnless required by applicable law or agreed to in writing, software\ndistributed under the License is distributed on an \"AS IS\" BASIS,\nWITHOUT WARRANTIES OR CONDITIONS OF ANY KIND, either express or implied.\nSee the License for the specific language governing permissions and\nlimitations under the License.\n */\n\npragma solidity 0.4.24;\nimport \"./CustomPausable.sol\";\n\n///@title This contract enables to maintain a list of whitelisted wallets.\ncontract CustomWhitelist is CustomPausable {\n  mapping(address => bool) public whitelist;\n\n  event WhitelistAdded(address indexed _account);\n  event WhitelistRemoved(address indexed _account);\n\n  ///@notice Verifies if the account is whitelisted.\n  modifier ifWhitelisted(address _account) {\n    require(_account != address(0));\n    require(whitelist[_account]);\n\n    _;\n  }\n\n  ///@notice Adds an account to the whitelist.\n  ///@param _account The wallet address to add to the whitelist.\n  function addWhitelist(address _account) external whenNotPaused onlyAdmin {\n    require(_account!=address(0));\n\n    if(!whitelist[_account]) {\n      whitelist[_account] = true;\n\n      emit WhitelistAdded(_account);\n    }\n  }\n\n  ///@notice Adds multiple accounts to the whitelist.\n  ///@param _accounts The wallet addresses to add to the whitelist.\n  function addManyWhitelist(address[] _accounts) external whenNotPaused onlyAdmin {\n    for(uint8 i=0;i<_accounts.length;i++) {\n      if(_accounts[i] != address(0) && !whitelist[_accounts[i]]) {\n        whitelist[_accounts[i]] = true;\n\n        emit WhitelistAdded(_accounts[i]);\n      }\n    }\n  }\n\n  ///@notice Removes an account from the whitelist.\n  ///@param _account The wallet address to remove from the whitelist.\n  function removeWhitelist(address _account) external whenNotPaused onlyAdmin {\n    require(_account != address(0));\n    if(whitelist[_account]) {\n      whitelist[_account] = false;\n\n      emit WhitelistRemoved(_account);\n    }\n  }\n\n  ///@notice Removes multiple accounts from the whitelist.\n  ///@param _accounts The wallet addresses to remove from the whitelist.\n  function removeManyWhitelist(address[] _accounts) external whenNotPaused onlyAdmin {\n    for(uint8 i=0;i<_accounts.length;i++) {\n      if(_accounts[i] != address(0) && whitelist[_accounts[i]]) {\n        whitelist[_accounts[i]] = false;\n\n        emit WhitelistRemoved(_accounts[i]);\n      }\n    }\n  }\n}\n",
  "sourcePath": "/Users/biod/Desktop/projects/KuBitXCrowdsale/contracts/CustomWhitelist.sol",
  "compiler": {
    "name": "solc",
    "version": "0.4.24+commit.e67f0147.Emscripten.clang"
  },
  "schemaVersion": "2.0.1",
  "updatedAt": "2018-11-13T07:39:54.767Z"
}