{
  "contractName": "TokenSale",
  "abi": [
    {
      "constant": false,
      "inputs": [
        {
          "name": "_accounts",
          "type": "address[]"
        }
      ],
      "name": "addManyWhitelist",
      "outputs": [],
      "payable": false,
      "stateMutability": "nonpayable",
      "type": "function"
    },
    {
      "constant": false,
      "inputs": [
        {
          "name": "_address",
          "type": "address"
        }
      ],
      "name": "removeAdmin",
      "outputs": [],
      "payable": false,
      "stateMutability": "nonpayable",
      "type": "function"
    },
    {
      "constant": true,
      "inputs": [
        {
          "name": "_address",
          "type": "address"
        }
      ],
      "name": "isAdmin",
      "outputs": [
        {
          "name": "",
          "type": "bool"
        }
      ],
      "payable": false,
      "stateMutability": "view",
      "type": "function"
    },
    {
      "constant": true,
      "inputs": [],
      "name": "rate",
      "outputs": [
        {
          "name": "",
          "type": "uint256"
        }
      ],
      "payable": false,
      "stateMutability": "view",
      "type": "function"
    },
    {
      "constant": true,
      "inputs": [],
      "name": "cap",
      "outputs": [
        {
          "name": "",
          "type": "uint256"
        }
      ],
      "payable": false,
      "stateMutability": "view",
      "type": "function"
    },
    {
      "constant": false,
      "inputs": [],
      "name": "unpause",
      "outputs": [],
      "payable": false,
      "stateMutability": "nonpayable",
      "type": "function"
    },
    {
      "constant": true,
      "inputs": [],
      "name": "weiRaised",
      "outputs": [
        {
          "name": "",
          "type": "uint256"
        }
      ],
      "payable": false,
      "stateMutability": "view",
      "type": "function"
    },
    {
      "constant": true,
      "inputs": [
        {
          "name": "",
          "type": "address"
        }
      ],
      "name": "admins",
      "outputs": [
        {
          "name": "",
          "type": "bool"
        }
      ],
      "payable": false,
      "stateMutability": "view",
      "type": "function"
    },
    {
      "constant": true,
      "inputs": [],
      "name": "isOpen",
      "outputs": [
        {
          "name": "",
          "type": "bool"
        }
      ],
      "payable": false,
      "stateMutability": "view",
      "type": "function"
    },
    {
      "constant": true,
      "inputs": [],
      "name": "closingTime",
      "outputs": [
        {
          "name": "",
          "type": "uint256"
        }
      ],
      "payable": false,
      "stateMutability": "view",
      "type": "function"
    },
    {
      "constant": false,
      "inputs": [],
      "name": "finalize",
      "outputs": [],
      "payable": false,
      "stateMutability": "nonpayable",
      "type": "function"
    },
    {
      "constant": true,
      "inputs": [],
      "name": "capReached",
      "outputs": [
        {
          "name": "",
          "type": "bool"
        }
      ],
      "payable": false,
      "stateMutability": "view",
      "type": "function"
    },
    {
      "constant": true,
      "inputs": [],
      "name": "wallet",
      "outputs": [
        {
          "name": "",
          "type": "address"
        }
      ],
      "payable": false,
      "stateMutability": "view",
      "type": "function"
    },
    {
      "constant": true,
      "inputs": [],
      "name": "paused",
      "outputs": [
        {
          "name": "",
          "type": "bool"
        }
      ],
      "payable": false,
      "stateMutability": "view",
      "type": "function"
    },
    {
      "constant": false,
      "inputs": [
        {
          "name": "_address",
          "type": "address"
        }
      ],
      "name": "addAdmin",
      "outputs": [],
      "payable": false,
      "stateMutability": "nonpayable",
      "type": "function"
    },
    {
      "constant": false,
      "inputs": [],
      "name": "renounceOwnership",
      "outputs": [],
      "payable": false,
      "stateMutability": "nonpayable",
      "type": "function"
    },
    {
      "constant": true,
      "inputs": [],
      "name": "bonus",
      "outputs": [
        {
          "name": "",
          "type": "uint256"
        }
      ],
      "payable": false,
      "stateMutability": "view",
      "type": "function"
    },
    {
      "constant": false,
      "inputs": [
        {
          "name": "_account",
          "type": "address"
        }
      ],
      "name": "removeWhitelist",
      "outputs": [],
      "payable": false,
      "stateMutability": "nonpayable",
      "type": "function"
    },
    {
      "constant": false,
      "inputs": [],
      "name": "pause",
      "outputs": [],
      "payable": false,
      "stateMutability": "nonpayable",
      "type": "function"
    },
    {
      "constant": true,
      "inputs": [],
      "name": "owner",
      "outputs": [
        {
          "name": "",
          "type": "address"
        }
      ],
      "payable": false,
      "stateMutability": "view",
      "type": "function"
    },
    {
      "constant": true,
      "inputs": [],
      "name": "isOwner",
      "outputs": [
        {
          "name": "",
          "type": "bool"
        }
      ],
      "payable": false,
      "stateMutability": "view",
      "type": "function"
    },
    {
      "constant": true,
      "inputs": [
        {
          "name": "",
          "type": "address"
        }
      ],
      "name": "whitelist",
      "outputs": [
        {
          "name": "",
          "type": "bool"
        }
      ],
      "payable": false,
      "stateMutability": "view",
      "type": "function"
    },
    {
      "constant": false,
      "inputs": [
        {
          "name": "_accounts",
          "type": "address[]"
        }
      ],
      "name": "removeManyWhitelist",
      "outputs": [],
      "payable": false,
      "stateMutability": "nonpayable",
      "type": "function"
    },
    {
      "constant": false,
      "inputs": [
        {
          "name": "_accounts",
          "type": "address[]"
        }
      ],
      "name": "addManyAdmins",
      "outputs": [],
      "payable": false,
      "stateMutability": "nonpayable",
      "type": "function"
    },
    {
      "constant": true,
      "inputs": [],
      "name": "finalized",
      "outputs": [
        {
          "name": "",
          "type": "bool"
        }
      ],
      "payable": false,
      "stateMutability": "view",
      "type": "function"
    },
    {
      "constant": true,
      "inputs": [],
      "name": "openingTime",
      "outputs": [
        {
          "name": "",
          "type": "uint256"
        }
      ],
      "payable": false,
      "stateMutability": "view",
      "type": "function"
    },
    {
      "constant": false,
      "inputs": [
        {
          "name": "beneficiary",
          "type": "address"
        }
      ],
      "name": "buyTokens",
      "outputs": [],
      "payable": true,
      "stateMutability": "payable",
      "type": "function"
    },
    {
      "constant": false,
      "inputs": [
        {
          "name": "_accounts",
          "type": "address[]"
        }
      ],
      "name": "removeManyAdmins",
      "outputs": [],
      "payable": false,
      "stateMutability": "nonpayable",
      "type": "function"
    },
    {
      "constant": false,
      "inputs": [
        {
          "name": "newOwner",
          "type": "address"
        }
      ],
      "name": "transferOwnership",
      "outputs": [],
      "payable": false,
      "stateMutability": "nonpayable",
      "type": "function"
    },
    {
      "constant": false,
      "inputs": [
        {
          "name": "_account",
          "type": "address"
        }
      ],
      "name": "addWhitelist",
      "outputs": [],
      "payable": false,
      "stateMutability": "nonpayable",
      "type": "function"
    },
    {
      "constant": true,
      "inputs": [],
      "name": "token",
      "outputs": [
        {
          "name": "",
          "type": "address"
        }
      ],
      "payable": false,
      "stateMutability": "view",
      "type": "function"
    },
    {
      "inputs": [
        {
          "name": "_openingTime",
          "type": "uint256"
        },
        {
          "name": "_closingTime",
          "type": "uint256"
        },
        {
          "name": "_rate",
          "type": "uint256"
        },
        {
          "name": "_wallet",
          "type": "address"
        },
        {
          "name": "_token",
          "type": "address"
        },
        {
          "name": "_bonus",
          "type": "uint256"
        },
        {
          "name": "_cap",
          "type": "uint256"
        }
      ],
      "payable": false,
      "stateMutability": "nonpayable",
      "type": "constructor"
    },
    {
      "payable": true,
      "stateMutability": "payable",
      "type": "fallback"
    },
    {
      "anonymous": false,
      "inputs": [
        {
          "indexed": true,
          "name": "_wallet",
          "type": "address"
        },
        {
          "indexed": false,
          "name": "_amount",
          "type": "uint256"
        }
      ],
      "name": "FundsWithdrawn",
      "type": "event"
    },
    {
      "anonymous": false,
      "inputs": [
        {
          "indexed": false,
          "name": "_newBonus",
          "type": "uint256"
        },
        {
          "indexed": false,
          "name": "_oldBonus",
          "type": "uint256"
        }
      ],
      "name": "BonusChanged",
      "type": "event"
    },
    {
      "anonymous": false,
      "inputs": [
        {
          "indexed": true,
          "name": "_account",
          "type": "address"
        }
      ],
      "name": "WhitelistAdded",
      "type": "event"
    },
    {
      "anonymous": false,
      "inputs": [
        {
          "indexed": true,
          "name": "_account",
          "type": "address"
        }
      ],
      "name": "WhitelistRemoved",
      "type": "event"
    },
    {
      "anonymous": false,
      "inputs": [],
      "name": "Paused",
      "type": "event"
    },
    {
      "anonymous": false,
      "inputs": [],
      "name": "Unpaused",
      "type": "event"
    },
    {
      "anonymous": false,
      "inputs": [
        {
          "indexed": true,
          "name": "_address",
          "type": "address"
        }
      ],
      "name": "AdminAdded",
      "type": "event"
    },
    {
      "anonymous": false,
      "inputs": [
        {
          "indexed": true,
          "name": "_address",
          "type": "address"
        }
      ],
      "name": "AdminRemoved",
      "type": "event"
    },
    {
      "anonymous": false,
      "inputs": [
        {
          "indexed": true,
          "name": "previousOwner",
          "type": "address"
        },
        {
          "indexed": true,
          "name": "newOwner",
          "type": "address"
        }
      ],
      "name": "OwnershipTransferred",
      "type": "event"
    },
    {
      "anonymous": false,
      "inputs": [],
      "name": "CrowdsaleFinalized",
      "type": "event"
    },
    {
      "anonymous": false,
      "inputs": [
        {
          "indexed": true,
          "name": "purchaser",
          "type": "address"
        },
        {
          "indexed": true,
          "name": "beneficiary",
          "type": "address"
        },
        {
          "indexed": false,
          "name": "value",
          "type": "uint256"
        },
        {
          "indexed": false,
          "name": "amount",
          "type": "uint256"
        }
      ],
      "name": "TokensPurchased",
      "type": "event"
    },
    {
      "constant": false,
      "inputs": [
        {
          "name": "_amount",
          "type": "uint256"
        }
      ],
      "name": "withdrawFunds",
      "outputs": [],
      "payable": false,
      "stateMutability": "nonpayable",
      "type": "function"
    },
    {
      "constant": false,
      "inputs": [],
      "name": "withdrawTokens",
      "outputs": [],
      "payable": false,
      "stateMutability": "nonpayable",
      "type": "function"
    },
    {
      "constant": false,
      "inputs": [
        {
          "name": "_bonus",
          "type": "uint256"
        }
      ],
      "name": "changeBonus",
      "outputs": [],
      "payable": false,
      "stateMutability": "nonpayable",
      "type": "function"
    },
    {
      "constant": true,
      "inputs": [],
      "name": "hasClosed",
      "outputs": [
        {
          "name": "",
          "type": "bool"
        }
      ],
      "payable": false,
      "stateMutability": "view",
      "type": "function"
    }
  ],
  "bytecode": "0x60806040526000600a60006101000a81548160ff0219169083151502179055503480156200002c57600080fd5b5060405160e0806200360b833981018060405281019080805190602001909291908051906020019092919080519060200190929190805190602001909291908051906020019092919080519060200190929190805190602001909291905050508686828787876001600081905550600083111515620000aa57600080fd5b600073ffffffffffffffffffffffffffffffffffffffff168273ffffffffffffffffffffffffffffffffffffffff1614151515620000e757600080fd5b600073ffffffffffffffffffffffffffffffffffffffff168173ffffffffffffffffffffffffffffffffffffffff16141515156200012457600080fd5b8260038190555081600260006101000a81548173ffffffffffffffffffffffffffffffffffffffff021916908373ffffffffffffffffffffffffffffffffffffffff16021790555080600160006101000a81548173ffffffffffffffffffffffffffffffffffffffff021916908373ffffffffffffffffffffffffffffffffffffffff160217905550505050600081111515620001c057600080fd5b8060058190555050428210151515620001d857600080fd5b8181111515620001e757600080fd5b816006819055508060078190555050506000600860006101000a81548160ff02191690831515021790555033600860016101000a81548173ffffffffffffffffffffffffffffffffffffffff021916908373ffffffffffffffffffffffffffffffffffffffff160217905550600860019054906101000a900473ffffffffffffffffffffffffffffffffffffffff1673ffffffffffffffffffffffffffffffffffffffff16600073ffffffffffffffffffffffffffffffffffffffff167f8be0079c531659141344cd1fd0a4f28419497f9722a3daafe3b4186f6b6457e060405160405180910390a3600082111515620002e057600080fd5b81600c819055505050505050505061330d80620002fe6000396000f3006080604052600436106101b7576000357c0100000000000000000000000000000000000000000000000000000000900463ffffffff1680630aaef916146101c25780631515bc2b146101fd578063155dd5ee1461022c5780631785f53c1461025957806324d7806c1461029c5780632c4e722e146102f7578063355274ea146103225780633f4ba83a1461034d5780634042b66f14610364578063429b62e51461038f57806347535d7b146103ea5780634b6753bc146104195780634bb278f3146104445780634f9359451461045b578063521eb2731461048a5780635c975abb146104e15780637048027514610510578063715018a61461055357806375b4d78c1461056a57806378c8cda7146105955780638456cb59146105d85780638d8f2adb146105ef5780638da5cb5b146106065780638f32d59b1461065d5780639b19251a1461068c5780639d8168f0146106e7578063a8e6e77b14610722578063b3f05b971461075d578063b7a8807c1461078c578063c1ff808d146107b7578063ec8ac4d8146107e4578063f1bca30f1461081a578063f2fde38b14610855578063f80f5dd514610898578063fc0c546a146108db575b6101c033610932565b005b3480156101ce57600080fd5b506101fb600480360381019080803590602001908201803590602001919091929391929390505050610a28565b005b34801561020957600080fd5b50610212610d53565b604051808215151515815260200191505060405180910390f35b34801561023857600080fd5b5061025760048036038101908080359060200190929190505050610d71565b005b34801561026557600080fd5b5061029a600480360381019080803573ffffffffffffffffffffffffffffffffffffffff169060200190929190505050610f57565b005b3480156102a857600080fd5b506102dd600480360381019080803573ffffffffffffffffffffffffffffffffffffffff1690602001909291905050506112f5565b604051808215151515815260200191505060405180910390f35b34801561030357600080fd5b5061030c611390565b6040518082815260200191505060405180910390f35b34801561032e57600080fd5b5061033761139a565b6040518082815260200191505060405180910390f35b34801561035957600080fd5b506103626113a4565b005b34801561037057600080fd5b50610379611514565b6040518082815260200191505060405180910390f35b34801561039b57600080fd5b506103d0600480360381019080803573ffffffffffffffffffffffffffffffffffffffff16906020019092919050505061151e565b604051808215151515815260200191505060405180910390f35b3480156103f657600080fd5b506103ff61153e565b604051808215151515815260200191505060405180910390f35b34801561042557600080fd5b5061042e611559565b6040518082815260200191505060405180910390f35b34801561045057600080fd5b50610459611563565b005b34801561046757600080fd5b506104706115e3565b604051808215151515815260200191505060405180910390f35b34801561049657600080fd5b5061049f6115f7565b604051808273ffffffffffffffffffffffffffffffffffffffff1673ffffffffffffffffffffffffffffffffffffffff16815260200191505060405180910390f35b3480156104ed57600080fd5b506104f6611621565b604051808215151515815260200191505060405180910390f35b34801561051c57600080fd5b50610551600480360381019080803573ffffffffffffffffffffffffffffffffffffffff169060200190929190505050611634565b005b34801561055f57600080fd5b506105686119d3565b005b34801561057657600080fd5b5061057f611aa7565b6040518082815260200191505060405180910390f35b3480156105a157600080fd5b506105d6600480360381019080803573ffffffffffffffffffffffffffffffffffffffff169060200190929190505050611aad565b005b3480156105e457600080fd5b506105ed611d02565b005b3480156105fb57600080fd5b50610604611e73565b005b34801561061257600080fd5b5061061b6120aa565b604051808273ffffffffffffffffffffffffffffffffffffffff1673ffffffffffffffffffffffffffffffffffffffff16815260200191505060405180910390f35b34801561066957600080fd5b506106726120d4565b604051808215151515815260200191505060405180910390f35b34801561069857600080fd5b506106cd600480360381019080803573ffffffffffffffffffffffffffffffffffffffff16906020019092919050505061212c565b604051808215151515815260200191505060405180910390f35b3480156106f357600080fd5b5061072060048036038101908080359060200190820180359060200191909192939192939050505061214c565b005b34801561072e57600080fd5b5061075b600480360381019080803590602001908201803590602001919091929391929390505050612476565b005b34801561076957600080fd5b506107726126e0565b604051808215151515815260200191505060405180910390f35b34801561079857600080fd5b506107a16126f7565b6040518082815260200191505060405180910390f35b3480156107c357600080fd5b506107e260048036038101908080359060200190929190505050612701565b005b610818600480360381019080803573ffffffffffffffffffffffffffffffffffffffff169060200190929190505050610932565b005b34801561082657600080fd5b50610853600480360381019080803590602001908201803590602001919091929391929390505050612883565b005b34801561086157600080fd5b50610896600480360381019080803573ffffffffffffffffffffffffffffffffffffffff169060200190929190505050612aec565b005b3480156108a457600080fd5b506108d9600480360381019080803573ffffffffffffffffffffffffffffffffffffffff169060200190929190505050612b0b565b005b3480156108e757600080fd5b506108f0612d61565b604051808273ffffffffffffffffffffffffffffffffffffffff1673ffffffffffffffffffffffffffffffffffffffff16815260200191505060405180910390f35b60008060006001600080828254019250508190555060005490503492506109598484612d8b565b61096283612eda565b915061097983600454612f3090919063ffffffff16565b6004819055506109898483612f51565b8373ffffffffffffffffffffffffffffffffffffffff163373ffffffffffffffffffffffffffffffffffffffff167f6faf93231a456e552dbc9961f58d9713ee4f2e69d15f1975b050ef0911053a7b8585604051808381526020018281526020019250505060405180910390a3610a008484612f5f565b610a08612f63565b610a128484612f65565b60005481141515610a2257600080fd5b50505050565b6000600a60009054906101000a900460ff16151515610ad5576040517f08c379a00000000000000000000000000000000000000000000000000000000081526004018080602001828103825260248152602001807f536f727279206275742074686520636f6e74726163742069736e27742070617581526020017f7365642e0000000000000000000000000000000000000000000000000000000081525060400191505060405180910390fd5b610ade336112f5565b1515610b52576040517f08c379a00000000000000000000000000000000000000000000000000000000081526004018080602001828103825260118152602001807f4163636573732069732064656e6965642e00000000000000000000000000000081525060200191505060405180910390fd5b600090505b828290508160ff161015610d4e57600073ffffffffffffffffffffffffffffffffffffffff1683838360ff168181101515610b8e57fe5b9050602002013573ffffffffffffffffffffffffffffffffffffffff1673ffffffffffffffffffffffffffffffffffffffff1614158015610c465750600b600084848460ff168181101515610bdf57fe5b9050602002013573ffffffffffffffffffffffffffffffffffffffff1673ffffffffffffffffffffffffffffffffffffffff1673ffffffffffffffffffffffffffffffffffffffff16815260200190815260200160002060009054906101000a900460ff16155b15610d41576001600b600085858560ff168181101515610c6257fe5b9050602002013573ffffffffffffffffffffffffffffffffffffffff1673ffffffffffffffffffffffffffffffffffffffff1673ffffffffffffffffffffffffffffffffffffffff16815260200190815260200160002060006101000a81548160ff02191690831515021790555082828260ff168181101515610ce157fe5b9050602002013573ffffffffffffffffffffffffffffffffffffffff1673ffffffffffffffffffffffffffffffffffffffff167f4790a4adb426ca2345bb5108f6e454eae852a7bf687544cd66a7270dff3a41d660405160405180910390a25b8080600101915050610b57565b505050565b6000610d5d612f69565b80610d6c5750610d6b6115e3565b5b905090565b600a60009054906101000a900460ff16151515610e1c576040517f08c379a00000000000000000000000000000000000000000000000000000000081526004018080602001828103825260248152602001807f536f727279206275742074686520636f6e74726163742069736e27742070617581526020017f7365642e0000000000000000000000000000000000000000000000000000000081525060400191505060405180910390fd5b610e25336112f5565b1515610e99576040517f08c379a00000000000000000000000000000000000000000000000000000000081526004018080602001828103825260118152602001807f4163636573732069732064656e6965642e00000000000000000000000000000081525060200191505060405180910390fd5b3073ffffffffffffffffffffffffffffffffffffffff16318111151515610ebf57600080fd5b3373ffffffffffffffffffffffffffffffffffffffff166108fc829081150290604051600060405180830381858888f19350505050158015610f05573d6000803e3d6000fd5b503373ffffffffffffffffffffffffffffffffffffffff167feaff4b37086828766ad3268786972c0cd24259d4c87a80f9d3963a3c3d999b0d826040518082815260200191505060405180910390a250565b610f60336112f5565b1515610fd4576040517f08c379a00000000000000000000000000000000000000000000000000000000081526004018080602001828103825260118152602001807f4163636573732069732064656e6965642e00000000000000000000000000000081525060200191505060405180910390fd5b600073ffffffffffffffffffffffffffffffffffffffff168173ffffffffffffffffffffffffffffffffffffffff1614151515611079576040517f08c379a00000000000000000000000000000000000000000000000000000000081526004018080602001828103825260108152602001807f496e76616c696420616464726573732e0000000000000000000000000000000081525060200191505060405180910390fd5b600960008273ffffffffffffffffffffffffffffffffffffffff1673ffffffffffffffffffffffffffffffffffffffff16815260200190815260200160002060009054906101000a900460ff161515611160576040517f08c379a00000000000000000000000000000000000000000000000000000000081526004018080602001828103825260248152602001807f5468697320616464726573732069736e277420616e2061646d696e697374726181526020017f746f722e0000000000000000000000000000000000000000000000000000000081525060400191505060405180910390fd5b6111686120aa565b73ffffffffffffffffffffffffffffffffffffffff168173ffffffffffffffffffffffffffffffffffffffff1614151515611257576040517f08c379a00000000000000000000000000000000000000000000000000000000081526004018080602001828103825260478152602001807f546865206f776e65722063616e6e6f74206265206164646564206f722072656d81526020017f6f76656420746f206f722066726f6d207468652061646d696e6973747261746f81526020017f72206c6973742e0000000000000000000000000000000000000000000000000081525060600191505060405180910390fd5b6000600960008373ffffffffffffffffffffffffffffffffffffffff1673ffffffffffffffffffffffffffffffffffffffff16815260200190815260200160002060006101000a81548160ff0219169083151502179055508073ffffffffffffffffffffffffffffffffffffffff167fa3b62bc36326052d97ea62d63c3d60308ed4c3ea8ac079dd8499f1e9c4f80c0f60405160405180910390a250565b60006112ff6120aa565b73ffffffffffffffffffffffffffffffffffffffff168273ffffffffffffffffffffffffffffffffffffffff16141561133b576001905061138b565b600960008373ffffffffffffffffffffffffffffffffffffffff1673ffffffffffffffffffffffffffffffffffffffff16815260200190815260200160002060009054906101000a900460ff1690505b919050565b6000600354905090565b6000600554905090565b6113ad336112f5565b1515611421576040517f08c379a00000000000000000000000000000000000000000000000000000000081526004018080602001828103825260118152602001807f4163636573732069732064656e6965642e00000000000000000000000000000081525060200191505060405180910390fd5b600a60009054906101000a900460ff1615156114cb576040517f08c379a00000000000000000000000000000000000000000000000000000000081526004018080602001828103825260218152602001807f536f727279206275742074686520636f6e74726163742069732070617573656481526020017f2e0000000000000000000000000000000000000000000000000000000000000081525060400191505060405180910390fd5b6000600a60006101000a81548160ff0219169083151502179055507fa45f47fdea8a1efdd9029a5691c7f759c32b7c698632b563573e155625d1693360405160405180910390a1565b6000600454905090565b60096020528060005260406000206000915054906101000a900460ff1681565b6000600654421015801561155457506007544211155b905090565b6000600754905090565b600860009054906101000a900460ff1615151561157f57600080fd5b611587610d53565b151561159257600080fd5b6001600860006101000a81548160ff0219169083151502179055506115b5612f75565b7f9270cc390c096600a1c17c44345a1ba689fafd99d97487b10cfccf86cf73183660405160405180910390a1565b60006005546115f0611514565b1015905090565b6000600260009054906101000a900473ffffffffffffffffffffffffffffffffffffffff16905090565b600a60009054906101000a900460ff1681565b61163d336112f5565b15156116b1576040517f08c379a00000000000000000000000000000000000000000000000000000000081526004018080602001828103825260118152602001807f4163636573732069732064656e6965642e00000000000000000000000000000081525060200191505060405180910390fd5b600073ffffffffffffffffffffffffffffffffffffffff168173ffffffffffffffffffffffffffffffffffffffff1614151515611756576040517f08c379a00000000000000000000000000000000000000000000000000000000081526004018080602001828103825260108152602001807f496e76616c696420616464726573732e0000000000000000000000000000000081525060200191505060405180910390fd5b600960008273ffffffffffffffffffffffffffffffffffffffff1673ffffffffffffffffffffffffffffffffffffffff16815260200190815260200160002060009054906101000a900460ff1615151561183e576040517f08c379a00000000000000000000000000000000000000000000000000000000081526004018080602001828103825260298152602001807f54686973206164647265737320697320616c726561647920616e2061646d696e81526020017f6973747261746f722e000000000000000000000000000000000000000000000081525060400191505060405180910390fd5b6118466120aa565b73ffffffffffffffffffffffffffffffffffffffff168173ffffffffffffffffffffffffffffffffffffffff1614151515611935576040517f08c379a00000000000000000000000000000000000000000000000000000000081526004018080602001828103825260478152602001807f546865206f776e65722063616e6e6f74206265206164646564206f722072656d81526020017f6f76656420746f206f722066726f6d207468652061646d696e6973747261746f81526020017f72206c6973742e0000000000000000000000000000000000000000000000000081525060600191505060405180910390fd5b6001600960008373ffffffffffffffffffffffffffffffffffffffff1673ffffffffffffffffffffffffffffffffffffffff16815260200190815260200160002060006101000a81548160ff0219169083151502179055508073ffffffffffffffffffffffffffffffffffffffff167f44d6d25963f097ad14f29f06854a01f575648a1ef82f30e562ccd3889717e33960405160405180910390a250565b6119db6120d4565b15156119e657600080fd5b600073ffffffffffffffffffffffffffffffffffffffff16600860019054906101000a900473ffffffffffffffffffffffffffffffffffffffff1673ffffffffffffffffffffffffffffffffffffffff167f8be0079c531659141344cd1fd0a4f28419497f9722a3daafe3b4186f6b6457e060405160405180910390a36000600860016101000a81548173ffffffffffffffffffffffffffffffffffffffff021916908373ffffffffffffffffffffffffffffffffffffffff160217905550565b600c5481565b600a60009054906101000a900460ff16151515611b58576040517f08c379a00000000000000000000000000000000000000000000000000000000081526004018080602001828103825260248152602001807f536f727279206275742074686520636f6e74726163742069736e27742070617581526020017f7365642e0000000000000000000000000000000000000000000000000000000081525060400191505060405180910390fd5b611b61336112f5565b1515611bd5576040517f08c379a00000000000000000000000000000000000000000000000000000000081526004018080602001828103825260118152602001807f4163636573732069732064656e6965642e00000000000000000000000000000081525060200191505060405180910390fd5b600073ffffffffffffffffffffffffffffffffffffffff168173ffffffffffffffffffffffffffffffffffffffff1614151515611c1157600080fd5b600b60008273ffffffffffffffffffffffffffffffffffffffff1673ffffffffffffffffffffffffffffffffffffffff16815260200190815260200160002060009054906101000a900460ff1615611cff576000600b60008373ffffffffffffffffffffffffffffffffffffffff1673ffffffffffffffffffffffffffffffffffffffff16815260200190815260200160002060006101000a81548160ff0219169083151502179055508073ffffffffffffffffffffffffffffffffffffffff167fde8cf212af7ce38b2840785a2768d97ff2dbf3c21b516961cec0061e134c2a1e60405160405180910390a25b50565b611d0b336112f5565b1515611d7f576040517f08c379a00000000000000000000000000000000000000000000000000000000081526004018080602001828103825260118152602001807f4163636573732069732064656e6965642e00000000000000000000000000000081525060200191505060405180910390fd5b600a60009054906101000a900460ff16151515611e2a576040517f08c379a00000000000000000000000000000000000000000000000000000000081526004018080602001828103825260248152602001807f536f727279206275742074686520636f6e74726163742069736e27742070617581526020017f7365642e0000000000000000000000000000000000000000000000000000000081525060400191505060405180910390fd5b6001600a60006101000a81548160ff0219169083151502179055507f9e87fac88ff661f02d44f95383c817fece4bce600a3dab7a54406878b965e75260405160405180910390a1565b6000600a60009054906101000a900460ff16151515611f20576040517f08c379a00000000000000000000000000000000000000000000000000000000081526004018080602001828103825260248152602001807f536f727279206275742074686520636f6e74726163742069736e27742070617581526020017f7365642e0000000000000000000000000000000000000000000000000000000081525060400191505060405180910390fd5b611f29336112f5565b1515611f9d576040517f08c379a00000000000000000000000000000000000000000000000000000000081526004018080602001828103825260118152602001807f4163636573732069732064656e6965642e00000000000000000000000000000081525060200191505060405180910390fd5b611fa5612d61565b90506120a7338273ffffffffffffffffffffffffffffffffffffffff166370a08231306040518263ffffffff167c0100000000000000000000000000000000000000000000000000000000028152600401808273ffffffffffffffffffffffffffffffffffffffff1673ffffffffffffffffffffffffffffffffffffffff168152602001915050602060405180830381600087803b15801561204657600080fd5b505af115801561205a573d6000803e3d6000fd5b505050506040513d602081101561207057600080fd5b81019080805190602001909291905050508373ffffffffffffffffffffffffffffffffffffffff16612f779092919063ffffffff16565b50565b6000600860019054906101000a900473ffffffffffffffffffffffffffffffffffffffff16905090565b6000600860019054906101000a900473ffffffffffffffffffffffffffffffffffffffff1673ffffffffffffffffffffffffffffffffffffffff163373ffffffffffffffffffffffffffffffffffffffff1614905090565b600b6020528060005260406000206000915054906101000a900460ff1681565b6000600a60009054906101000a900460ff161515156121f9576040517f08c379a00000000000000000000000000000000000000000000000000000000081526004018080602001828103825260248152602001807f536f727279206275742074686520636f6e74726163742069736e27742070617581526020017f7365642e0000000000000000000000000000000000000000000000000000000081525060400191505060405180910390fd5b612202336112f5565b1515612276576040517f08c379a00000000000000000000000000000000000000000000000000000000081526004018080602001828103825260118152602001807f4163636573732069732064656e6965642e00000000000000000000000000000081525060200191505060405180910390fd5b600090505b828290508160ff16101561247157600073ffffffffffffffffffffffffffffffffffffffff1683838360ff1681811015156122b257fe5b9050602002013573ffffffffffffffffffffffffffffffffffffffff1673ffffffffffffffffffffffffffffffffffffffff16141580156123695750600b600084848460ff16818110151561230357fe5b9050602002013573ffffffffffffffffffffffffffffffffffffffff1673ffffffffffffffffffffffffffffffffffffffff1673ffffffffffffffffffffffffffffffffffffffff16815260200190815260200160002060009054906101000a900460ff165b15612464576000600b600085858560ff16818110151561238557fe5b9050602002013573ffffffffffffffffffffffffffffffffffffffff1673ffffffffffffffffffffffffffffffffffffffff1673ffffffffffffffffffffffffffffffffffffffff16815260200190815260200160002060006101000a81548160ff02191690831515021790555082828260ff16818110151561240457fe5b9050602002013573ffffffffffffffffffffffffffffffffffffffff1673ffffffffffffffffffffffffffffffffffffffff167fde8cf212af7ce38b2840785a2768d97ff2dbf3c21b516961cec0061e134c2a1e60405160405180910390a25b808060010191505061227b565b505050565b600080612482336112f5565b15156124f6576040517f08c379a00000000000000000000000000000000000000000000000000000000081526004018080602001828103825260118152602001807f4163636573732069732064656e6965642e00000000000000000000000000000081525060200191505060405180910390fd5b600091505b838390508260ff1610156126da5783838360ff16818110151561251a57fe5b9050602002013573ffffffffffffffffffffffffffffffffffffffff169050600073ffffffffffffffffffffffffffffffffffffffff168173ffffffffffffffffffffffffffffffffffffffff16141580156125c05750600960008273ffffffffffffffffffffffffffffffffffffffff1673ffffffffffffffffffffffffffffffffffffffff16815260200190815260200160002060009054906101000a900460ff16155b80156125ff57506125cf6120aa565b73ffffffffffffffffffffffffffffffffffffffff168173ffffffffffffffffffffffffffffffffffffffff1614155b156126cd576001600960008373ffffffffffffffffffffffffffffffffffffffff1673ffffffffffffffffffffffffffffffffffffffff16815260200190815260200160002060006101000a81548160ff02191690831515021790555083838360ff16818110151561266d57fe5b9050602002013573ffffffffffffffffffffffffffffffffffffffff1673ffffffffffffffffffffffffffffffffffffffff167f44d6d25963f097ad14f29f06854a01f575648a1ef82f30e562ccd3889717e33960405160405180910390a25b81806001019250506124fb565b50505050565b6000600860009054906101000a900460ff16905090565b6000600654905090565b600a60009054906101000a900460ff161515156127ac576040517f08c379a00000000000000000000000000000000000000000000000000000000081526004018080602001828103825260248152602001807f536f727279206275742074686520636f6e74726163742069736e27742070617581526020017f7365642e0000000000000000000000000000000000000000000000000000000081525060400191505060405180910390fd5b6127b5336112f5565b1515612829576040517f08c379a00000000000000000000000000000000000000000000000000000000081526004018080602001828103825260118152602001807f4163636573732069732064656e6965642e00000000000000000000000000000081525060200191505060405180910390fd5b60008111151561283857600080fd5b7f6b0918972c018b0289a2c94926280d9af386ae58b445d47be2c9e29edc064cb181600c54604051808381526020018281526020019250505060405180910390a180600c8190555050565b60008061288f336112f5565b1515612903576040517f08c379a00000000000000000000000000000000000000000000000000000000081526004018080602001828103825260118152602001807f4163636573732069732064656e6965642e00000000000000000000000000000081525060200191505060405180910390fd5b600091505b838390508260ff161015612ae65783838360ff16818110151561292757fe5b9050602002013573ffffffffffffffffffffffffffffffffffffffff169050600073ffffffffffffffffffffffffffffffffffffffff168173ffffffffffffffffffffffffffffffffffffffff16141580156129cc5750600960008273ffffffffffffffffffffffffffffffffffffffff1673ffffffffffffffffffffffffffffffffffffffff16815260200190815260200160002060009054906101000a900460ff165b8015612a0b57506129db6120aa565b73ffffffffffffffffffffffffffffffffffffffff168173ffffffffffffffffffffffffffffffffffffffff1614155b15612ad9576000600960008373ffffffffffffffffffffffffffffffffffffffff1673ffffffffffffffffffffffffffffffffffffffff16815260200190815260200160002060006101000a81548160ff02191690831515021790555083838360ff168181101515612a7957fe5b9050602002013573ffffffffffffffffffffffffffffffffffffffff1673ffffffffffffffffffffffffffffffffffffffff167fa3b62bc36326052d97ea62d63c3d60308ed4c3ea8ac079dd8499f1e9c4f80c0f60405160405180910390a25b8180600101925050612908565b50505050565b612af46120d4565b1515612aff57600080fd5b612b0881613065565b50565b600a60009054906101000a900460ff16151515612bb6576040517f08c379a00000000000000000000000000000000000000000000000000000000081526004018080602001828103825260248152602001807f536f727279206275742074686520636f6e74726163742069736e27742070617581526020017f7365642e0000000000000000000000000000000000000000000000000000000081525060400191505060405180910390fd5b612bbf336112f5565b1515612c33576040517f08c379a00000000000000000000000000000000000000000000000000000000081526004018080602001828103825260118152602001807f4163636573732069732064656e6965642e00000000000000000000000000000081525060200191505060405180910390fd5b600073ffffffffffffffffffffffffffffffffffffffff168173ffffffffffffffffffffffffffffffffffffffff1614151515612c6f57600080fd5b600b60008273ffffffffffffffffffffffffffffffffffffffff1673ffffffffffffffffffffffffffffffffffffffff16815260200190815260200160002060009054906101000a900460ff161515612d5e576001600b60008373ffffffffffffffffffffffffffffffffffffffff1673ffffffffffffffffffffffffffffffffffffffff16815260200190815260200160002060006101000a81548160ff0219169083151502179055508073ffffffffffffffffffffffffffffffffffffffff167f4790a4adb426ca2345bb5108f6e454eae852a7bf687544cd66a7270dff3a41d660405160405180910390a25b50565b6000600160009054906101000a900473ffffffffffffffffffffffffffffffffffffffff16905090565b600a60009054906101000a900460ff16151515612e36576040517f08c379a00000000000000000000000000000000000000000000000000000000081526004018080602001828103825260248152602001807f536f727279206275742074686520636f6e74726163742069736e27742070617581526020017f7365642e0000000000000000000000000000000000000000000000000000000081525060400191505060405180910390fd5b81600073ffffffffffffffffffffffffffffffffffffffff168173ffffffffffffffffffffffffffffffffffffffff1614151515612e7357600080fd5b600b60008273ffffffffffffffffffffffffffffffffffffffff1673ffffffffffffffffffffffffffffffffffffffff16815260200190815260200160002060009054906101000a900460ff161515612ecb57600080fd5b612ed58383613161565b505050565b6000806000612ee884613182565b9150612f126064612f04600c54856131a090919063ffffffff16565b6131de90919063ffffffff16565b9050612f278183612f3090919063ffffffff16565b92505050919050565b6000808284019050838110151515612f4757600080fd5b8091505092915050565b612f5b8282613208565b5050565b5050565b565b5050565b60006007544211905090565b565b8273ffffffffffffffffffffffffffffffffffffffff1663a9059cbb83836040518363ffffffff167c0100000000000000000000000000000000000000000000000000000000028152600401808373ffffffffffffffffffffffffffffffffffffffff1673ffffffffffffffffffffffffffffffffffffffff16815260200182815260200192505050602060405180830381600087803b15801561301a57600080fd5b505af115801561302e573d6000803e3d6000fd5b505050506040513d602081101561304457600080fd5b8101908080519060200190929190505050151561306057600080fd5b505050565b600073ffffffffffffffffffffffffffffffffffffffff168173ffffffffffffffffffffffffffffffffffffffff16141515156130a157600080fd5b8073ffffffffffffffffffffffffffffffffffffffff16600860019054906101000a900473ffffffffffffffffffffffffffffffffffffffff1673ffffffffffffffffffffffffffffffffffffffff167f8be0079c531659141344cd1fd0a4f28419497f9722a3daafe3b4186f6b6457e060405160405180910390a380600860016101000a81548173ffffffffffffffffffffffffffffffffffffffff021916908373ffffffffffffffffffffffffffffffffffffffff16021790555050565b61316961153e565b151561317457600080fd5b61317e8282613259565b5050565b6000613199600354836131a090919063ffffffff16565b9050919050565b60008060008414156131b557600091506131d7565b82840290508284828115156131c657fe5b041415156131d357600080fd5b8091505b5092915050565b6000806000831115156131f057600080fd5b82848115156131fb57fe5b0490508091505092915050565b6132558282600160009054906101000a900473ffffffffffffffffffffffffffffffffffffffff1673ffffffffffffffffffffffffffffffffffffffff16612f779092919063ffffffff16565b5050565b6132638282613291565b60055461328082613272611514565b612f3090919063ffffffff16565b1115151561328d57600080fd5b5050565b600073ffffffffffffffffffffffffffffffffffffffff168273ffffffffffffffffffffffffffffffffffffffff16141515156132cd57600080fd5b600081141515156132dd57600080fd5b50505600a165627a7a7230582004293419581d74811d2f1c4f76d56172603d43476975f70b67faaa42e1ef5a940029",
  "source": "pragma solidity ^0.4.22;\nimport \"openzeppelin-solidity/contracts/crowdsale/distribution/FinalizableCrowdsale.sol\";\nimport \"openzeppelin-solidity/contracts/crowdsale/validation/CappedCrowdsale.sol\";\nimport \"openzeppelin-solidity/contracts/token/ERC20/IERC20.sol\";\nimport \"./CustomWhitelist.sol\";\n\ncontract TokenSale is CappedCrowdsale, FinalizableCrowdsale, CustomWhitelist {\n  using SafeMath for uint256;\n\n  event FundsWithdrawn(address indexed _wallet, uint256 _amount);\n  event BonusChanged(uint256 _newBonus, uint256 _oldBonus);\n\n  uint256 public bonus;\n\n  constructor(uint256 _openingTime, uint256 _closingTime, uint256 _rate, address _wallet, IERC20 _token, uint256 _bonus, uint256 _cap)\n  TimedCrowdsale(_openingTime, _closingTime) CappedCrowdsale(_cap) Crowdsale(_rate, _wallet, _token) public {\n    require(_bonus > 0);\n    bonus = _bonus;\n  }\n\n\n  function _preValidatePurchase(address _beneficiary, uint256 _weiAmount) internal view whenNotPaused ifWhitelisted(_beneficiary) {\n   super._preValidatePurchase(_beneficiary, _weiAmount);\n }\n\n\n function _getTokenAmount(uint256 weiAmount) internal view returns (uint256) {\n   uint256 tokenAmount = super._getTokenAmount(weiAmount);\n   uint256 bonusTokens = tokenAmount.mul(bonus).div(100);\n   return tokenAmount.add(bonusTokens);\n }\n\n\n  function _forwardFunds() internal {\n\n  }\n\n\n  function withdrawFunds(uint256 _amount) external whenNotPaused onlyAdmin {\n    require(_amount <= address(this).balance);\n    msg.sender.transfer(_amount);\n    emit FundsWithdrawn(msg.sender, _amount);\n  }\n\n  function withdrawTokens() public whenNotPaused onlyAdmin {\n    IERC20 t = super.token();\n    t.safeTransfer(msg.sender, t.balanceOf(this));\n  }\n\n  function changeBonus(uint256 _bonus) external whenNotPaused onlyAdmin {\n    require(_bonus > 0);\n    emit BonusChanged(_bonus, bonus);\n    bonus = _bonus;\n  }\n\n  function hasClosed() public view returns (bool) {\n    return super.hasClosed() || super.capReached();\n  }\n\n\n\n}\n",
  "sourcePath": "/Users/biod/Desktop/projects/KuBitXCrowdsale/contracts/TokenSale.sol",
  "compiler": {
    "name": "solc",
    "version": "0.4.24+commit.e67f0147.Emscripten.clang"
  },
  "schemaVersion": "2.0.1",
  "updatedAt": "2018-11-13T07:39:54.768Z"
}